{
  "_format": "hh-sol-artifact-1",
  "contractName": "NFTRewards",
  "sourceName": "contracts/NFT.sol",
  "abi": [
    {
      "inputs": [
        {
          "internalType": "address",
          "name": "initialOwner",
          "type": "address"
        }
      ],
      "stateMutability": "nonpayable",
      "type": "constructor"
    },
    {
      "inputs": [
        {
          "internalType": "address",
          "name": "sender",
          "type": "address"
        },
        {
          "internalType": "uint256",
          "name": "tokenId",
          "type": "uint256"
        },
        {
          "internalType": "address",
          "name": "owner",
          "type": "address"
        }
      ],
      "name": "ERC721IncorrectOwner",
      "type": "error"
    },
    {
      "inputs": [
        {
          "internalType": "address",
          "name": "operator",
          "type": "address"
        },
        {
          "internalType": "uint256",
          "name": "tokenId",
          "type": "uint256"
        }
      ],
      "name": "ERC721InsufficientApproval",
      "type": "error"
    },
    {
      "inputs": [
        {
          "internalType": "address",
          "name": "approver",
          "type": "address"
        }
      ],
      "name": "ERC721InvalidApprover",
      "type": "error"
    },
    {
      "inputs": [
        {
          "internalType": "address",
          "name": "operator",
          "type": "address"
        }
      ],
      "name": "ERC721InvalidOperator",
      "type": "error"
    },
    {
      "inputs": [
        {
          "internalType": "address",
          "name": "owner",
          "type": "address"
        }
      ],
      "name": "ERC721InvalidOwner",
      "type": "error"
    },
    {
      "inputs": [
        {
          "internalType": "address",
          "name": "receiver",
          "type": "address"
        }
      ],
      "name": "ERC721InvalidReceiver",
      "type": "error"
    },
    {
      "inputs": [
        {
          "internalType": "address",
          "name": "sender",
          "type": "address"
        }
      ],
      "name": "ERC721InvalidSender",
      "type": "error"
    },
    {
      "inputs": [
        {
          "internalType": "uint256",
          "name": "tokenId",
          "type": "uint256"
        }
      ],
      "name": "ERC721NonexistentToken",
      "type": "error"
    },
    {
      "inputs": [
        {
          "internalType": "address",
          "name": "owner",
          "type": "address"
        }
      ],
      "name": "OwnableInvalidOwner",
      "type": "error"
    },
    {
      "inputs": [
        {
          "internalType": "address",
          "name": "account",
          "type": "address"
        }
      ],
      "name": "OwnableUnauthorizedAccount",
      "type": "error"
    },
    {
      "anonymous": false,
      "inputs": [
        {
          "indexed": true,
          "internalType": "address",
          "name": "owner",
          "type": "address"
        },
        {
          "indexed": true,
          "internalType": "address",
          "name": "approved",
          "type": "address"
        },
        {
          "indexed": true,
          "internalType": "uint256",
          "name": "tokenId",
          "type": "uint256"
        }
      ],
      "name": "Approval",
      "type": "event"
    },
    {
      "anonymous": false,
      "inputs": [
        {
          "indexed": true,
          "internalType": "address",
          "name": "owner",
          "type": "address"
        },
        {
          "indexed": true,
          "internalType": "address",
          "name": "operator",
          "type": "address"
        },
        {
          "indexed": false,
          "internalType": "bool",
          "name": "approved",
          "type": "bool"
        }
      ],
      "name": "ApprovalForAll",
      "type": "event"
    },
    {
      "anonymous": false,
      "inputs": [
        {
          "indexed": false,
          "internalType": "uint256",
          "name": "_fromTokenId",
          "type": "uint256"
        },
        {
          "indexed": false,
          "internalType": "uint256",
          "name": "_toTokenId",
          "type": "uint256"
        }
      ],
      "name": "BatchMetadataUpdate",
      "type": "event"
    },
    {
      "anonymous": false,
      "inputs": [
        {
          "indexed": false,
          "internalType": "uint256",
          "name": "_tokenId",
          "type": "uint256"
        }
      ],
      "name": "MetadataUpdate",
      "type": "event"
    },
    {
      "anonymous": false,
      "inputs": [
        {
          "indexed": true,
          "internalType": "address",
          "name": "previousOwner",
          "type": "address"
        },
        {
          "indexed": true,
          "internalType": "address",
          "name": "newOwner",
          "type": "address"
        }
      ],
      "name": "OwnershipTransferred",
      "type": "event"
    },
    {
      "anonymous": false,
      "inputs": [
        {
          "indexed": true,
          "internalType": "address",
          "name": "from",
          "type": "address"
        },
        {
          "indexed": true,
          "internalType": "address",
          "name": "to",
          "type": "address"
        },
        {
          "indexed": true,
          "internalType": "uint256",
          "name": "tokenId",
          "type": "uint256"
        }
      ],
      "name": "Transfer",
      "type": "event"
    },
    {
      "inputs": [
        {
          "internalType": "address",
          "name": "to",
          "type": "address"
        },
        {
          "internalType": "uint256",
          "name": "tokenId",
          "type": "uint256"
        }
      ],
      "name": "approve",
      "outputs": [],
      "stateMutability": "nonpayable",
      "type": "function"
    },
    {
      "inputs": [
        {
          "internalType": "address",
          "name": "owner",
          "type": "address"
        }
      ],
      "name": "balanceOf",
      "outputs": [
        {
          "internalType": "uint256",
          "name": "",
          "type": "uint256"
        }
      ],
      "stateMutability": "view",
      "type": "function"
    },
    {
      "inputs": [
        {
          "internalType": "string",
          "name": "tokenURI",
          "type": "string"
        }
      ],
      "name": "claimReward",
      "outputs": [],
      "stateMutability": "nonpayable",
      "type": "function"
    },
    {
      "inputs": [
        {
          "internalType": "uint256",
          "name": "tokenId",
          "type": "uint256"
        }
      ],
      "name": "getApproved",
      "outputs": [
        {
          "internalType": "address",
          "name": "",
          "type": "address"
        }
      ],
      "stateMutability": "view",
      "type": "function"
    },
    {
      "inputs": [
        {
          "internalType": "address",
          "name": "user",
          "type": "address"
        }
      ],
      "name": "getInvestments",
      "outputs": [
        {
          "components": [
            {
              "internalType": "string",
              "name": "coinName",
              "type": "string"
            },
            {
              "internalType": "uint256",
              "name": "amount",
              "type": "uint256"
            },
            {
              "internalType": "uint256",
              "name": "duration",
              "type": "uint256"
            }
          ],
          "internalType": "struct NFTRewards.Investment[]",
          "name": "",
          "type": "tuple[]"
        }
      ],
      "stateMutability": "view",
      "type": "function"
    },
    {
      "inputs": [
        {
          "internalType": "string",
          "name": "coinName",
          "type": "string"
        },
        {
          "internalType": "uint256",
          "name": "amount",
          "type": "uint256"
        },
        {
          "internalType": "uint256",
          "name": "duration",
          "type": "uint256"
        }
      ],
      "name": "invest",
      "outputs": [],
      "stateMutability": "nonpayable",
      "type": "function"
    },
    {
      "inputs": [
        {
          "internalType": "address",
          "name": "",
          "type": "address"
        },
        {
          "internalType": "uint256",
          "name": "",
          "type": "uint256"
        }
      ],
      "name": "investments",
      "outputs": [
        {
          "internalType": "string",
          "name": "coinName",
          "type": "string"
        },
        {
          "internalType": "uint256",
          "name": "amount",
          "type": "uint256"
        },
        {
          "internalType": "uint256",
          "name": "duration",
          "type": "uint256"
        }
      ],
      "stateMutability": "view",
      "type": "function"
    },
    {
      "inputs": [
        {
          "internalType": "address",
          "name": "owner",
          "type": "address"
        },
        {
          "internalType": "address",
          "name": "operator",
          "type": "address"
        }
      ],
      "name": "isApprovedForAll",
      "outputs": [
        {
          "internalType": "bool",
          "name": "",
          "type": "bool"
        }
      ],
      "stateMutability": "view",
      "type": "function"
    },
    {
      "inputs": [
        {
          "internalType": "address",
          "name": "to",
          "type": "address"
        },
        {
          "internalType": "string",
          "name": "tokenURI",
          "type": "string"
        }
      ],
      "name": "mint",
      "outputs": [],
      "stateMutability": "nonpayable",
      "type": "function"
    },
    {
      "inputs": [],
      "name": "name",
      "outputs": [
        {
          "internalType": "string",
          "name": "",
          "type": "string"
        }
      ],
      "stateMutability": "view",
      "type": "function"
    },
    {
      "inputs": [],
      "name": "nextTokenId",
      "outputs": [
        {
          "internalType": "uint256",
          "name": "",
          "type": "uint256"
        }
      ],
      "stateMutability": "view",
      "type": "function"
    },
    {
      "inputs": [],
      "name": "owner",
      "outputs": [
        {
          "internalType": "address",
          "name": "",
          "type": "address"
        }
      ],
      "stateMutability": "view",
      "type": "function"
    },
    {
      "inputs": [
        {
          "internalType": "uint256",
          "name": "tokenId",
          "type": "uint256"
        }
      ],
      "name": "ownerOf",
      "outputs": [
        {
          "internalType": "address",
          "name": "",
          "type": "address"
        }
      ],
      "stateMutability": "view",
      "type": "function"
    },
    {
      "inputs": [],
      "name": "renounceOwnership",
      "outputs": [],
      "stateMutability": "nonpayable",
      "type": "function"
    },
    {
      "inputs": [
        {
          "internalType": "address",
          "name": "user",
          "type": "address"
        }
      ],
      "name": "rewardUser",
      "outputs": [],
      "stateMutability": "nonpayable",
      "type": "function"
    },
    {
      "inputs": [
        {
          "internalType": "address",
          "name": "",
          "type": "address"
        }
      ],
      "name": "rewards",
      "outputs": [
        {
          "internalType": "uint256",
          "name": "",
          "type": "uint256"
        }
      ],
      "stateMutability": "view",
      "type": "function"
    },
    {
      "inputs": [
        {
          "internalType": "address",
          "name": "from",
          "type": "address"
        },
        {
          "internalType": "address",
          "name": "to",
          "type": "address"
        },
        {
          "internalType": "uint256",
          "name": "tokenId",
          "type": "uint256"
        }
      ],
      "name": "safeTransferFrom",
      "outputs": [],
      "stateMutability": "nonpayable",
      "type": "function"
    },
    {
      "inputs": [
        {
          "internalType": "address",
          "name": "from",
          "type": "address"
        },
        {
          "internalType": "address",
          "name": "to",
          "type": "address"
        },
        {
          "internalType": "uint256",
          "name": "tokenId",
          "type": "uint256"
        },
        {
          "internalType": "bytes",
          "name": "data",
          "type": "bytes"
        }
      ],
      "name": "safeTransferFrom",
      "outputs": [],
      "stateMutability": "nonpayable",
      "type": "function"
    },
    {
      "inputs": [
        {
          "internalType": "address",
          "name": "operator",
          "type": "address"
        },
        {
          "internalType": "bool",
          "name": "approved",
          "type": "bool"
        }
      ],
      "name": "setApprovalForAll",
      "outputs": [],
      "stateMutability": "nonpayable",
      "type": "function"
    },
    {
      "inputs": [
        {
          "internalType": "bytes4",
          "name": "interfaceId",
          "type": "bytes4"
        }
      ],
      "name": "supportsInterface",
      "outputs": [
        {
          "internalType": "bool",
          "name": "",
          "type": "bool"
        }
      ],
      "stateMutability": "view",
      "type": "function"
    },
    {
      "inputs": [],
      "name": "symbol",
      "outputs": [
        {
          "internalType": "string",
          "name": "",
          "type": "string"
        }
      ],
      "stateMutability": "view",
      "type": "function"
    },
    {
      "inputs": [
        {
          "internalType": "uint256",
          "name": "tokenId",
          "type": "uint256"
        }
      ],
      "name": "tokenURI",
      "outputs": [
        {
          "internalType": "string",
          "name": "",
          "type": "string"
        }
      ],
      "stateMutability": "view",
      "type": "function"
    },
    {
      "inputs": [
        {
          "internalType": "address",
          "name": "from",
          "type": "address"
        },
        {
          "internalType": "address",
          "name": "to",
          "type": "address"
        },
        {
          "internalType": "uint256",
          "name": "tokenId",
          "type": "uint256"
        }
      ],
      "name": "transferFrom",
      "outputs": [],
      "stateMutability": "nonpayable",
      "type": "function"
    },
    {
      "inputs": [
        {
          "internalType": "address",
          "name": "newOwner",
          "type": "address"
        }
      ],
      "name": "transferOwnership",
      "outputs": [],
      "stateMutability": "nonpayable",
      "type": "function"
    }
  ],
  "bytecode": "0x60806040523480156200001157600080fd5b506040516200357538038062003575833981810160405281019062000037919062000288565b806040518060400160405280600981526020017f5265776172644e465400000000000000000000000000000000000000000000008152506040518060400160405280600481526020017f524e4654000000000000000000000000000000000000000000000000000000008152508160009081620000b5919062000534565b508060019081620000c7919062000534565b505050600073ffffffffffffffffffffffffffffffffffffffff168173ffffffffffffffffffffffffffffffffffffffff16036200013f5760006040517f1e4fbdf70000000000000000000000000000000000000000000000000000000081526004016200013691906200062c565b60405180910390fd5b62000150816200015860201b60201c565b505062000649565b6000600760009054906101000a900473ffffffffffffffffffffffffffffffffffffffff16905081600760006101000a81548173ffffffffffffffffffffffffffffffffffffffff021916908373ffffffffffffffffffffffffffffffffffffffff1602179055508173ffffffffffffffffffffffffffffffffffffffff168173ffffffffffffffffffffffffffffffffffffffff167f8be0079c531659141344cd1fd0a4f28419497f9722a3daafe3b4186f6b6457e060405160405180910390a35050565b600080fd5b600073ffffffffffffffffffffffffffffffffffffffff82169050919050565b6000620002508262000223565b9050919050565b620002628162000243565b81146200026e57600080fd5b50565b600081519050620002828162000257565b92915050565b600060208284031215620002a157620002a06200021e565b5b6000620002b18482850162000271565b91505092915050565b600081519050919050565b7f4e487b7100000000000000000000000000000000000000000000000000000000600052604160045260246000fd5b7f4e487b7100000000000000000000000000000000000000000000000000000000600052602260045260246000fd5b600060028204905060018216806200033c57607f821691505b602082108103620003525762000351620002f4565b5b50919050565b60008190508160005260206000209050919050565b60006020601f8301049050919050565b600082821b905092915050565b600060088302620003bc7fffffffffffffffffffffffffffffffffffffffffffffffffffffffffffffffff826200037d565b620003c886836200037d565b95508019841693508086168417925050509392505050565b6000819050919050565b6000819050919050565b6000620004156200040f6200040984620003e0565b620003ea565b620003e0565b9050919050565b6000819050919050565b6200043183620003f4565b6200044962000440826200041c565b8484546200038a565b825550505050565b600090565b6200046062000451565b6200046d81848462000426565b505050565b5b8181101562000495576200048960008262000456565b60018101905062000473565b5050565b601f821115620004e457620004ae8162000358565b620004b9846200036d565b81016020851015620004c9578190505b620004e1620004d8856200036d565b83018262000472565b50505b505050565b600082821c905092915050565b60006200050960001984600802620004e9565b1980831691505092915050565b6000620005248383620004f6565b9150826002028217905092915050565b6200053f82620002ba565b67ffffffffffffffff8111156200055b576200055a620002c5565b5b62000567825462000323565b6200057482828562000499565b600060209050601f831160018114620005ac576000841562000597578287015190505b620005a3858262000516565b86555062000613565b601f198416620005bc8662000358565b60005b82811015620005e657848901518255600182019150602085019450602081019050620005bf565b8683101562000606578489015162000602601f891682620004f6565b8355505b6001600288020188555050505b505050505050565b620006268162000243565b82525050565b60006020820190506200064360008301846200061b565b92915050565b612f1c80620006596000396000f3fe608060405234801561001057600080fd5b50600436106101585760003560e01c806375794a3c116100c3578063bb8c97971161007c578063bb8c9797146103c5578063c87b56dd146103e1578063d0def52114610411578063e985e9c51461042d578063f2fde38b1461045d578063fc73c86e1461047957610158565b806375794a3c146103175780638da5cb5b1461033557806395d89b4114610353578063a22cb46514610371578063a6afd7db1461038d578063b88d4fde146103a957610158565b80633e6d9770116101155780633e6d97701461024357806342842e0e146102755780634bb430b9146102915780636352211e146102ad57806370a08231146102dd578063715018a61461030d57610158565b806301ffc9a71461015d57806306fdde031461018d5780630700037d146101ab578063081812fc146101db578063095ea7b31461020b57806323b872dd14610227575b600080fd5b6101776004803603810190610172919061205c565b6104a9565b60405161018491906120a4565b60405180910390f35b61019561050a565b6040516101a2919061214f565b60405180910390f35b6101c560048036038101906101c091906121cf565b61059c565b6040516101d29190612215565b60405180910390f35b6101f560048036038101906101f0919061225c565b6105b4565b6040516102029190612298565b60405180910390f35b610225600480360381019061022091906122b3565b6105d0565b005b610241600480360381019061023c91906122f3565b6105e6565b005b61025d600480360381019061025891906122b3565b6106e8565b60405161026c93929190612346565b60405180910390f35b61028f600480360381019061028a91906122f3565b6107b7565b005b6102ab60048036038101906102a691906124b9565b6107d7565b005b6102c760048036038101906102c2919061225c565b61088b565b6040516102d49190612298565b60405180910390f35b6102f760048036038101906102f291906121cf565b61089d565b6040516103049190612215565b60405180910390f35b610315610957565b005b61031f61096b565b60405161032c9190612215565b60405180910390f35b61033d610971565b60405161034a9190612298565b60405180910390f35b61035b61099b565b604051610368919061214f565b60405180910390f35b61038b60048036038101906103869190612554565b610a2d565b005b6103a760048036038101906103a291906121cf565b610a43565b005b6103c360048036038101906103be9190612635565b610aa3565b005b6103df60048036038101906103da91906126b8565b610ac8565b005b6103fb60048036038101906103f6919061225c565b610bd2565b604051610408919061214f565b60405180910390f35b61042b60048036038101906104269190612701565b610ce5565b005b6104476004803603810190610442919061275d565b610d21565b60405161045491906120a4565b60405180910390f35b610477600480360381019061047291906121cf565b610db5565b005b610493600480360381019061048e91906121cf565b610e3b565b6040516104a09190612908565b60405180910390f35b6000634906490660e01b7bffffffffffffffffffffffffffffffffffffffffffffffffffffffff1916827bffffffffffffffffffffffffffffffffffffffffffffffffffffffff19161480610503575061050282610f7f565b5b9050919050565b60606000805461051990612959565b80601f016020809104026020016040519081016040528092919081815260200182805461054590612959565b80156105925780601f1061056757610100808354040283529160200191610592565b820191906000526020600020905b81548152906001019060200180831161057557829003601f168201915b5050505050905090565b60096020528060005260406000206000915090505481565b60006105bf82611061565b506105c9826110e9565b9050919050565b6105e282826105dd611126565b61112e565b5050565b600073ffffffffffffffffffffffffffffffffffffffff168273ffffffffffffffffffffffffffffffffffffffff16036106585760006040517f64a0ae9200000000000000000000000000000000000000000000000000000000815260040161064f9190612298565b60405180910390fd5b600061066c8383610667611126565b611140565b90508373ffffffffffffffffffffffffffffffffffffffff168173ffffffffffffffffffffffffffffffffffffffff16146106e2578382826040517f64283d7b0000000000000000000000000000000000000000000000000000000081526004016106d99392919061298a565b60405180910390fd5b50505050565b600a602052816000526040600020818154811061070457600080fd5b90600052602060002090600302016000915091505080600001805461072890612959565b80601f016020809104026020016040519081016040528092919081815260200182805461075490612959565b80156107a15780601f10610776576101008083540402835291602001916107a1565b820191906000526020600020905b81548152906001019060200180831161078457829003601f168201915b5050505050908060010154908060020154905083565b6107d283838360405180602001604052806000815250610aa3565b505050565b600a60003373ffffffffffffffffffffffffffffffffffffffff1673ffffffffffffffffffffffffffffffffffffffff1681526020019081526020016000206040518060600160405280858152602001848152602001838152509080600181540180825580915050600190039060005260206000209060030201600090919091909150600082015181600001908161086f9190612b6d565b5060208201518160010155604082015181600201555050505050565b600061089682611061565b9050919050565b60008073ffffffffffffffffffffffffffffffffffffffff168273ffffffffffffffffffffffffffffffffffffffff16036109105760006040517f89c62b640000000000000000000000000000000000000000000000000000000081526004016109079190612298565b60405180910390fd5b600360008373ffffffffffffffffffffffffffffffffffffffff1673ffffffffffffffffffffffffffffffffffffffff168152602001908152602001600020549050919050565b61095f61135a565b61096960006113e1565b565b60085481565b6000600760009054906101000a900473ffffffffffffffffffffffffffffffffffffffff16905090565b6060600180546109aa90612959565b80601f01602080910402602001604051908101604052809291908181526020018280546109d690612959565b8015610a235780601f106109f857610100808354040283529160200191610a23565b820191906000526020600020905b815481529060010190602001808311610a0657829003601f168201915b5050505050905090565b610a3f610a38611126565b83836114a7565b5050565b610a4b61135a565b600960008273ffffffffffffffffffffffffffffffffffffffff1673ffffffffffffffffffffffffffffffffffffffff1681526020019081526020016000206000815480929190610a9b90612c6e565b919050555050565b610aae8484846105e6565b610ac2610ab9611126565b85858585611616565b50505050565b6000600960003373ffffffffffffffffffffffffffffffffffffffff1673ffffffffffffffffffffffffffffffffffffffff1681526020019081526020016000205411610b4a576040517f08c379a0000000000000000000000000000000000000000000000000000000008152600401610b4190612d02565b60405180910390fd5b600960003373ffffffffffffffffffffffffffffffffffffffff1673ffffffffffffffffffffffffffffffffffffffff1681526020019081526020016000206000815480929190610b9a90612d22565b9190505550610bab336008546117c7565b610bb7600854826117e5565b60086000815480929190610bca90612c6e565b919050555050565b6060610bdd82611061565b506000600660008481526020019081526020016000208054610bfe90612959565b80601f0160208091040260200160405190810160405280929190818152602001828054610c2a90612959565b8015610c775780601f10610c4c57610100808354040283529160200191610c77565b820191906000526020600020905b815481529060010190602001808311610c5a57829003601f168201915b505050505090506000610c88611841565b90506000815103610c9d578192505050610ce0565b600082511115610cd2578082604051602001610cba929190612d87565b60405160208183030381529060405292505050610ce0565b610cdb84611858565b925050505b919050565b610ced61135a565b610cf9826008546117c7565b610d05600854826117e5565b60086000815480929190610d1890612c6e565b91905055505050565b6000600560008473ffffffffffffffffffffffffffffffffffffffff1673ffffffffffffffffffffffffffffffffffffffff16815260200190815260200160002060008373ffffffffffffffffffffffffffffffffffffffff1673ffffffffffffffffffffffffffffffffffffffff16815260200190815260200160002060009054906101000a900460ff16905092915050565b610dbd61135a565b600073ffffffffffffffffffffffffffffffffffffffff168173ffffffffffffffffffffffffffffffffffffffff1603610e2f5760006040517f1e4fbdf7000000000000000000000000000000000000000000000000000000008152600401610e269190612298565b60405180910390fd5b610e38816113e1565b50565b6060600a60008373ffffffffffffffffffffffffffffffffffffffff1673ffffffffffffffffffffffffffffffffffffffff168152602001908152602001600020805480602002602001604051908101604052809291908181526020016000905b82821015610f745783829060005260206000209060030201604051806060016040529081600082018054610ecf90612959565b80601f0160208091040260200160405190810160405280929190818152602001828054610efb90612959565b8015610f485780601f10610f1d57610100808354040283529160200191610f48565b820191906000526020600020905b815481529060010190602001808311610f2b57829003601f168201915b505050505081526020016001820154815260200160028201548152505081526020019060010190610e9c565b505050509050919050565b60007f80ac58cd000000000000000000000000000000000000000000000000000000007bffffffffffffffffffffffffffffffffffffffffffffffffffffffff1916827bffffffffffffffffffffffffffffffffffffffffffffffffffffffff1916148061104a57507f5b5e139f000000000000000000000000000000000000000000000000000000007bffffffffffffffffffffffffffffffffffffffffffffffffffffffff1916827bffffffffffffffffffffffffffffffffffffffffffffffffffffffff1916145b8061105a5750611059826118c1565b5b9050919050565b60008061106d8361192b565b9050600073ffffffffffffffffffffffffffffffffffffffff168173ffffffffffffffffffffffffffffffffffffffff16036110e057826040517f7e2732890000000000000000000000000000000000000000000000000000000081526004016110d79190612215565b60405180910390fd5b80915050919050565b60006004600083815260200190815260200160002060009054906101000a900473ffffffffffffffffffffffffffffffffffffffff169050919050565b600033905090565b61113b8383836001611968565b505050565b60008061114c8461192b565b9050600073ffffffffffffffffffffffffffffffffffffffff168373ffffffffffffffffffffffffffffffffffffffff161461118e5761118d818486611b2d565b5b600073ffffffffffffffffffffffffffffffffffffffff168173ffffffffffffffffffffffffffffffffffffffff161461121f576111d0600085600080611968565b6001600360008373ffffffffffffffffffffffffffffffffffffffff1673ffffffffffffffffffffffffffffffffffffffff168152602001908152602001600020600082825403925050819055505b600073ffffffffffffffffffffffffffffffffffffffff168573ffffffffffffffffffffffffffffffffffffffff16146112a2576001600360008773ffffffffffffffffffffffffffffffffffffffff1673ffffffffffffffffffffffffffffffffffffffff168152602001908152602001600020600082825401925050819055505b846002600086815260200190815260200160002060006101000a81548173ffffffffffffffffffffffffffffffffffffffff021916908373ffffffffffffffffffffffffffffffffffffffff160217905550838573ffffffffffffffffffffffffffffffffffffffff168273ffffffffffffffffffffffffffffffffffffffff167fddf252ad1be2c89b69c2b068fc378daa952ba7f163c4a11628f55a4df523b3ef60405160405180910390a4809150509392505050565b611362611126565b73ffffffffffffffffffffffffffffffffffffffff16611380610971565b73ffffffffffffffffffffffffffffffffffffffff16146113df576113a3611126565b6040517f118cdaa70000000000000000000000000000000000000000000000000000000081526004016113d69190612298565b60405180910390fd5b565b6000600760009054906101000a900473ffffffffffffffffffffffffffffffffffffffff16905081600760006101000a81548173ffffffffffffffffffffffffffffffffffffffff021916908373ffffffffffffffffffffffffffffffffffffffff1602179055508173ffffffffffffffffffffffffffffffffffffffff168173ffffffffffffffffffffffffffffffffffffffff167f8be0079c531659141344cd1fd0a4f28419497f9722a3daafe3b4186f6b6457e060405160405180910390a35050565b600073ffffffffffffffffffffffffffffffffffffffff168273ffffffffffffffffffffffffffffffffffffffff160361151857816040517f5b08ba1800000000000000000000000000000000000000000000000000000000815260040161150f9190612298565b60405180910390fd5b80600560008573ffffffffffffffffffffffffffffffffffffffff1673ffffffffffffffffffffffffffffffffffffffff16815260200190815260200160002060008473ffffffffffffffffffffffffffffffffffffffff1673ffffffffffffffffffffffffffffffffffffffff16815260200190815260200160002060006101000a81548160ff0219169083151502179055508173ffffffffffffffffffffffffffffffffffffffff168373ffffffffffffffffffffffffffffffffffffffff167f17307eab39ab6107e8899845ad3d59bd9653f200f220920489ca2b5937696c318360405161160991906120a4565b60405180910390a3505050565b60008373ffffffffffffffffffffffffffffffffffffffff163b11156117c0578273ffffffffffffffffffffffffffffffffffffffff1663150b7a02868685856040518563ffffffff1660e01b81526004016116759493929190612e00565b6020604051808303816000875af19250505080156116b157506040513d601f19601f820116820180604052508101906116ae9190612e61565b60015b611735573d80600081146116e1576040519150601f19603f3d011682016040523d82523d6000602084013e6116e6565b606091505b50600081510361172d57836040517f64a0ae920000000000000000000000000000000000000000000000000000000081526004016117249190612298565b60405180910390fd5b805181602001fd5b63150b7a0260e01b7bffffffffffffffffffffffffffffffffffffffffffffffffffffffff1916817bffffffffffffffffffffffffffffffffffffffffffffffffffffffff1916146117be57836040517f64a0ae920000000000000000000000000000000000000000000000000000000081526004016117b59190612298565b60405180910390fd5b505b5050505050565b6117e1828260405180602001604052806000815250611bf1565b5050565b806006600084815260200190815260200160002090816118059190612b6d565b507ff8e1a15aba9398e019f0b49df1a4fde98ee17ae345cb5f6b5e2c27f5033e8ce7826040516118359190612215565b60405180910390a15050565b606060405180602001604052806000815250905090565b606061186382611061565b50600061186e611841565b9050600081511161188e57604051806020016040528060008152506118b9565b8061189884611c15565b6040516020016118a9929190612d87565b6040516020818303038152906040525b915050919050565b60007f01ffc9a7000000000000000000000000000000000000000000000000000000007bffffffffffffffffffffffffffffffffffffffffffffffffffffffff1916827bffffffffffffffffffffffffffffffffffffffffffffffffffffffff1916149050919050565b60006002600083815260200190815260200160002060009054906101000a900473ffffffffffffffffffffffffffffffffffffffff169050919050565b80806119a15750600073ffffffffffffffffffffffffffffffffffffffff168273ffffffffffffffffffffffffffffffffffffffff1614155b15611ad55760006119b184611061565b9050600073ffffffffffffffffffffffffffffffffffffffff168373ffffffffffffffffffffffffffffffffffffffff1614158015611a1c57508273ffffffffffffffffffffffffffffffffffffffff168173ffffffffffffffffffffffffffffffffffffffff1614155b8015611a2f5750611a2d8184610d21565b155b15611a7157826040517fa9fbf51f000000000000000000000000000000000000000000000000000000008152600401611a689190612298565b60405180910390fd5b8115611ad357838573ffffffffffffffffffffffffffffffffffffffff168273ffffffffffffffffffffffffffffffffffffffff167f8c5be1e5ebec7d5bd14f71427d1e84f3dd0314c0f7b2291e5b200ac8c7c3b92560405160405180910390a45b505b836004600085815260200190815260200160002060006101000a81548173ffffffffffffffffffffffffffffffffffffffff021916908373ffffffffffffffffffffffffffffffffffffffff16021790555050505050565b611b38838383611ce3565b611bec57600073ffffffffffffffffffffffffffffffffffffffff168373ffffffffffffffffffffffffffffffffffffffff1603611bad57806040517f7e273289000000000000000000000000000000000000000000000000000000008152600401611ba49190612215565b60405180910390fd5b81816040517f177e802f000000000000000000000000000000000000000000000000000000008152600401611be3929190612e8e565b60405180910390fd5b505050565b611bfb8383611da4565b611c10611c06611126565b6000858585611616565b505050565b606060006001611c2484611e9d565b01905060008167ffffffffffffffff811115611c4357611c4261238e565b5b6040519080825280601f01601f191660200182016040528015611c755781602001600182028036833780820191505090505b509050600082602001820190505b600115611cd8578080600190039150507f3031323334353637383961626364656600000000000000000000000000000000600a86061a8153600a8581611ccc57611ccb612eb7565b5b04945060008503611c83575b819350505050919050565b60008073ffffffffffffffffffffffffffffffffffffffff168373ffffffffffffffffffffffffffffffffffffffff1614158015611d9b57508273ffffffffffffffffffffffffffffffffffffffff168473ffffffffffffffffffffffffffffffffffffffff161480611d5c5750611d5b8484610d21565b5b80611d9a57508273ffffffffffffffffffffffffffffffffffffffff16611d82836110e9565b73ffffffffffffffffffffffffffffffffffffffff16145b5b90509392505050565b600073ffffffffffffffffffffffffffffffffffffffff168273ffffffffffffffffffffffffffffffffffffffff1603611e165760006040517f64a0ae92000000000000000000000000000000000000000000000000000000008152600401611e0d9190612298565b60405180910390fd5b6000611e2483836000611140565b9050600073ffffffffffffffffffffffffffffffffffffffff168173ffffffffffffffffffffffffffffffffffffffff1614611e985760006040517f73c6ac6e000000000000000000000000000000000000000000000000000000008152600401611e8f9190612298565b60405180910390fd5b505050565b600080600090507a184f03e93ff9f4daa797ed6e38ed64bf6a1f0100000000000000008310611efb577a184f03e93ff9f4daa797ed6e38ed64bf6a1f0100000000000000008381611ef157611ef0612eb7565b5b0492506040810190505b6d04ee2d6d415b85acef81000000008310611f38576d04ee2d6d415b85acef81000000008381611f2e57611f2d612eb7565b5b0492506020810190505b662386f26fc100008310611f6757662386f26fc100008381611f5d57611f5c612eb7565b5b0492506010810190505b6305f5e1008310611f90576305f5e1008381611f8657611f85612eb7565b5b0492506008810190505b6127108310611fb5576127108381611fab57611faa612eb7565b5b0492506004810190505b60648310611fd85760648381611fce57611fcd612eb7565b5b0492506002810190505b600a8310611fe7576001810190505b80915050919050565b6000604051905090565b600080fd5b600080fd5b60007fffffffff0000000000000000000000000000000000000000000000000000000082169050919050565b61203981612004565b811461204457600080fd5b50565b60008135905061205681612030565b92915050565b60006020828403121561207257612071611ffa565b5b600061208084828501612047565b91505092915050565b60008115159050919050565b61209e81612089565b82525050565b60006020820190506120b96000830184612095565b92915050565b600081519050919050565b600082825260208201905092915050565b60005b838110156120f95780820151818401526020810190506120de565b60008484015250505050565b6000601f19601f8301169050919050565b6000612121826120bf565b61212b81856120ca565b935061213b8185602086016120db565b61214481612105565b840191505092915050565b600060208201905081810360008301526121698184612116565b905092915050565b600073ffffffffffffffffffffffffffffffffffffffff82169050919050565b600061219c82612171565b9050919050565b6121ac81612191565b81146121b757600080fd5b50565b6000813590506121c9816121a3565b92915050565b6000602082840312156121e5576121e4611ffa565b5b60006121f3848285016121ba565b91505092915050565b6000819050919050565b61220f816121fc565b82525050565b600060208201905061222a6000830184612206565b92915050565b612239816121fc565b811461224457600080fd5b50565b60008135905061225681612230565b92915050565b60006020828403121561227257612271611ffa565b5b600061228084828501612247565b91505092915050565b61229281612191565b82525050565b60006020820190506122ad6000830184612289565b92915050565b600080604083850312156122ca576122c9611ffa565b5b60006122d8858286016121ba565b92505060206122e985828601612247565b9150509250929050565b60008060006060848603121561230c5761230b611ffa565b5b600061231a868287016121ba565b935050602061232b868287016121ba565b925050604061233c86828701612247565b9150509250925092565b600060608201905081810360008301526123608186612116565b905061236f6020830185612206565b61237c6040830184612206565b949350505050565b600080fd5b600080fd5b7f4e487b7100000000000000000000000000000000000000000000000000000000600052604160045260246000fd5b6123c682612105565b810181811067ffffffffffffffff821117156123e5576123e461238e565b5b80604052505050565b60006123f8611ff0565b905061240482826123bd565b919050565b600067ffffffffffffffff8211156124245761242361238e565b5b61242d82612105565b9050602081019050919050565b82818337600083830152505050565b600061245c61245784612409565b6123ee565b90508281526020810184848401111561247857612477612389565b5b61248384828561243a565b509392505050565b600082601f8301126124a05761249f612384565b5b81356124b0848260208601612449565b91505092915050565b6000806000606084860312156124d2576124d1611ffa565b5b600084013567ffffffffffffffff8111156124f0576124ef611fff565b5b6124fc8682870161248b565b935050602061250d86828701612247565b925050604061251e86828701612247565b9150509250925092565b61253181612089565b811461253c57600080fd5b50565b60008135905061254e81612528565b92915050565b6000806040838503121561256b5761256a611ffa565b5b6000612579858286016121ba565b925050602061258a8582860161253f565b9150509250929050565b600067ffffffffffffffff8211156125af576125ae61238e565b5b6125b882612105565b9050602081019050919050565b60006125d86125d384612594565b6123ee565b9050828152602081018484840111156125f4576125f3612389565b5b6125ff84828561243a565b509392505050565b600082601f83011261261c5761261b612384565b5b813561262c8482602086016125c5565b91505092915050565b6000806000806080858703121561264f5761264e611ffa565b5b600061265d878288016121ba565b945050602061266e878288016121ba565b935050604061267f87828801612247565b925050606085013567ffffffffffffffff8111156126a05761269f611fff565b5b6126ac87828801612607565b91505092959194509250565b6000602082840312156126ce576126cd611ffa565b5b600082013567ffffffffffffffff8111156126ec576126eb611fff565b5b6126f88482850161248b565b91505092915050565b6000806040838503121561271857612717611ffa565b5b6000612726858286016121ba565b925050602083013567ffffffffffffffff81111561274757612746611fff565b5b6127538582860161248b565b9150509250929050565b6000806040838503121561277457612773611ffa565b5b6000612782858286016121ba565b9250506020612793858286016121ba565b9150509250929050565b600081519050919050565b600082825260208201905092915050565b6000819050602082019050919050565b600082825260208201905092915050565b60006127e5826120bf565b6127ef81856127c9565b93506127ff8185602086016120db565b61280881612105565b840191505092915050565b61281c816121fc565b82525050565b6000606083016000830151848203600086015261283f82826127da565b91505060208301516128546020860182612813565b5060408301516128676040860182612813565b508091505092915050565b600061287e8383612822565b905092915050565b6000602082019050919050565b600061289e8261279d565b6128a881856127a8565b9350836020820285016128ba856127b9565b8060005b858110156128f657848403895281516128d78582612872565b94506128e283612886565b925060208a019950506001810190506128be565b50829750879550505050505092915050565b600060208201905081810360008301526129228184612893565b905092915050565b7f4e487b7100000000000000000000000000000000000000000000000000000000600052602260045260246000fd5b6000600282049050600182168061297157607f821691505b6020821081036129845761298361292a565b5b50919050565b600060608201905061299f6000830186612289565b6129ac6020830185612206565b6129b96040830184612289565b949350505050565b60008190508160005260206000209050919050565b60006020601f8301049050919050565b600082821b905092915050565b600060088302612a237fffffffffffffffffffffffffffffffffffffffffffffffffffffffffffffffff826129e6565b612a2d86836129e6565b95508019841693508086168417925050509392505050565b6000819050919050565b6000612a6a612a65612a60846121fc565b612a45565b6121fc565b9050919050565b6000819050919050565b612a8483612a4f565b612a98612a9082612a71565b8484546129f3565b825550505050565b600090565b612aad612aa0565b612ab8818484612a7b565b505050565b5b81811015612adc57612ad1600082612aa5565b600181019050612abe565b5050565b601f821115612b2157612af2816129c1565b612afb846129d6565b81016020851015612b0a578190505b612b1e612b16856129d6565b830182612abd565b50505b505050565b600082821c905092915050565b6000612b4460001984600802612b26565b1980831691505092915050565b6000612b5d8383612b33565b9150826002028217905092915050565b612b76826120bf565b67ffffffffffffffff811115612b8f57612b8e61238e565b5b612b998254612959565b612ba4828285612ae0565b600060209050601f831160018114612bd75760008415612bc5578287015190505b612bcf8582612b51565b865550612c37565b601f198416612be5866129c1565b60005b82811015612c0d57848901518255600182019150602085019450602081019050612be8565b86831015612c2a5784890151612c26601f891682612b33565b8355505b6001600288020188555050505b505050505050565b7f4e487b7100000000000000000000000000000000000000000000000000000000600052601160045260246000fd5b6000612c79826121fc565b91507fffffffffffffffffffffffffffffffffffffffffffffffffffffffffffffffff8203612cab57612caa612c3f565b5b600182019050919050565b7f4e6f207265776172647320617661696c61626c65000000000000000000000000600082015250565b6000612cec6014836120ca565b9150612cf782612cb6565b602082019050919050565b60006020820190508181036000830152612d1b81612cdf565b9050919050565b6000612d2d826121fc565b915060008203612d4057612d3f612c3f565b5b600182039050919050565b600081905092915050565b6000612d61826120bf565b612d6b8185612d4b565b9350612d7b8185602086016120db565b80840191505092915050565b6000612d938285612d56565b9150612d9f8284612d56565b91508190509392505050565b600081519050919050565b600082825260208201905092915050565b6000612dd282612dab565b612ddc8185612db6565b9350612dec8185602086016120db565b612df581612105565b840191505092915050565b6000608082019050612e156000830187612289565b612e226020830186612289565b612e2f6040830185612206565b8181036060830152612e418184612dc7565b905095945050505050565b600081519050612e5b81612030565b92915050565b600060208284031215612e7757612e76611ffa565b5b6000612e8584828501612e4c565b91505092915050565b6000604082019050612ea36000830185612289565b612eb06020830184612206565b9392505050565b7f4e487b7100000000000000000000000000000000000000000000000000000000600052601260045260246000fdfea2646970667358221220f08395a367e571d19d355e2bb6d09c19822899767458947dceac5fb7eea9967b64736f6c63430008140033",
  "linkReferences": {},
  "deployedLinkReferences": {}
}