{
  "_format": "hh-sol-artifact-1",
  "contractName": "NFTRewards",
  "sourceName": "contracts/NFT.sol",
  "abi": [
    {
      "inputs": [
        {
          "internalType": "address",
          "name": "initialOwner",
          "type": "address"
        }
      ],
      "stateMutability": "nonpayable",
      "type": "constructor"
    },
    {
      "inputs": [
        {
          "internalType": "address",
          "name": "sender",
          "type": "address"
        },
        {
          "internalType": "uint256",
          "name": "tokenId",
          "type": "uint256"
        },
        {
          "internalType": "address",
          "name": "owner",
          "type": "address"
        }
      ],
      "name": "ERC721IncorrectOwner",
      "type": "error"
    },
    {
      "inputs": [
        {
          "internalType": "address",
          "name": "operator",
          "type": "address"
        },
        {
          "internalType": "uint256",
          "name": "tokenId",
          "type": "uint256"
        }
      ],
      "name": "ERC721InsufficientApproval",
      "type": "error"
    },
    {
      "inputs": [
        {
          "internalType": "address",
          "name": "approver",
          "type": "address"
        }
      ],
      "name": "ERC721InvalidApprover",
      "type": "error"
    },
    {
      "inputs": [
        {
          "internalType": "address",
          "name": "operator",
          "type": "address"
        }
      ],
      "name": "ERC721InvalidOperator",
      "type": "error"
    },
    {
      "inputs": [
        {
          "internalType": "address",
          "name": "owner",
          "type": "address"
        }
      ],
      "name": "ERC721InvalidOwner",
      "type": "error"
    },
    {
      "inputs": [
        {
          "internalType": "address",
          "name": "receiver",
          "type": "address"
        }
      ],
      "name": "ERC721InvalidReceiver",
      "type": "error"
    },
    {
      "inputs": [
        {
          "internalType": "address",
          "name": "sender",
          "type": "address"
        }
      ],
      "name": "ERC721InvalidSender",
      "type": "error"
    },
    {
      "inputs": [
        {
          "internalType": "uint256",
          "name": "tokenId",
          "type": "uint256"
        }
      ],
      "name": "ERC721NonexistentToken",
      "type": "error"
    },
    {
      "inputs": [
        {
          "internalType": "address",
          "name": "owner",
          "type": "address"
        }
      ],
      "name": "OwnableInvalidOwner",
      "type": "error"
    },
    {
      "inputs": [
        {
          "internalType": "address",
          "name": "account",
          "type": "address"
        }
      ],
      "name": "OwnableUnauthorizedAccount",
      "type": "error"
    },
    {
      "anonymous": false,
      "inputs": [
        {
          "indexed": true,
          "internalType": "address",
          "name": "owner",
          "type": "address"
        },
        {
          "indexed": true,
          "internalType": "address",
          "name": "approved",
          "type": "address"
        },
        {
          "indexed": true,
          "internalType": "uint256",
          "name": "tokenId",
          "type": "uint256"
        }
      ],
      "name": "Approval",
      "type": "event"
    },
    {
      "anonymous": false,
      "inputs": [
        {
          "indexed": true,
          "internalType": "address",
          "name": "owner",
          "type": "address"
        },
        {
          "indexed": true,
          "internalType": "address",
          "name": "operator",
          "type": "address"
        },
        {
          "indexed": false,
          "internalType": "bool",
          "name": "approved",
          "type": "bool"
        }
      ],
      "name": "ApprovalForAll",
      "type": "event"
    },
    {
      "anonymous": false,
      "inputs": [
        {
          "indexed": false,
          "internalType": "uint256",
          "name": "_fromTokenId",
          "type": "uint256"
        },
        {
          "indexed": false,
          "internalType": "uint256",
          "name": "_toTokenId",
          "type": "uint256"
        }
      ],
      "name": "BatchMetadataUpdate",
      "type": "event"
    },
    {
      "anonymous": false,
      "inputs": [
        {
          "indexed": false,
          "internalType": "uint256",
          "name": "_tokenId",
          "type": "uint256"
        }
      ],
      "name": "MetadataUpdate",
      "type": "event"
    },
    {
      "anonymous": false,
      "inputs": [
        {
          "indexed": true,
          "internalType": "address",
          "name": "previousOwner",
          "type": "address"
        },
        {
          "indexed": true,
          "internalType": "address",
          "name": "newOwner",
          "type": "address"
        }
      ],
      "name": "OwnershipTransferred",
      "type": "event"
    },
    {
      "anonymous": false,
      "inputs": [
        {
          "indexed": true,
          "internalType": "address",
          "name": "from",
          "type": "address"
        },
        {
          "indexed": true,
          "internalType": "address",
          "name": "to",
          "type": "address"
        },
        {
          "indexed": true,
          "internalType": "uint256",
          "name": "tokenId",
          "type": "uint256"
        }
      ],
      "name": "Transfer",
      "type": "event"
    },
    {
      "inputs": [
        {
          "internalType": "address",
          "name": "to",
          "type": "address"
        },
        {
          "internalType": "uint256",
          "name": "tokenId",
          "type": "uint256"
        }
      ],
      "name": "approve",
      "outputs": [],
      "stateMutability": "nonpayable",
      "type": "function"
    },
    {
      "inputs": [
        {
          "internalType": "address",
          "name": "owner",
          "type": "address"
        }
      ],
      "name": "balanceOf",
      "outputs": [
        {
          "internalType": "uint256",
          "name": "",
          "type": "uint256"
        }
      ],
      "stateMutability": "view",
      "type": "function"
    },
    {
      "inputs": [
        {
          "internalType": "string",
          "name": "tokenURI",
          "type": "string"
        }
      ],
      "name": "claimReward",
      "outputs": [],
      "stateMutability": "nonpayable",
      "type": "function"
    },
    {
      "inputs": [
        {
          "internalType": "uint256",
          "name": "tokenId",
          "type": "uint256"
        }
      ],
      "name": "getApproved",
      "outputs": [
        {
          "internalType": "address",
          "name": "",
          "type": "address"
        }
      ],
      "stateMutability": "view",
      "type": "function"
    },
    {
      "inputs": [
        {
          "internalType": "address",
          "name": "user",
          "type": "address"
        }
      ],
      "name": "getInvestments",
      "outputs": [
        {
          "components": [
            {
              "internalType": "string",
              "name": "coinName",
              "type": "string"
            },
            {
              "internalType": "uint256",
              "name": "amount",
              "type": "uint256"
            },
            {
              "internalType": "uint256",
              "name": "duration",
              "type": "uint256"
            }
          ],
          "internalType": "struct NFTRewards.Investment[]",
          "name": "",
          "type": "tuple[]"
        }
      ],
      "stateMutability": "view",
      "type": "function"
    },
    {
      "inputs": [
        {
          "internalType": "string",
          "name": "coinName",
          "type": "string"
        },
        {
          "internalType": "uint256",
          "name": "amount",
          "type": "uint256"
        },
        {
          "internalType": "uint256",
          "name": "duration",
          "type": "uint256"
        }
      ],
      "name": "invest",
      "outputs": [],
      "stateMutability": "nonpayable",
      "type": "function"
    },
    {
      "inputs": [
        {
          "internalType": "address",
          "name": "",
          "type": "address"
        },
        {
          "internalType": "uint256",
          "name": "",
          "type": "uint256"
        }
      ],
      "name": "investments",
      "outputs": [
        {
          "internalType": "string",
          "name": "coinName",
          "type": "string"
        },
        {
          "internalType": "uint256",
          "name": "amount",
          "type": "uint256"
        },
        {
          "internalType": "uint256",
          "name": "duration",
          "type": "uint256"
        }
      ],
      "stateMutability": "view",
      "type": "function"
    },
    {
      "inputs": [
        {
          "internalType": "address",
          "name": "owner",
          "type": "address"
        },
        {
          "internalType": "address",
          "name": "operator",
          "type": "address"
        }
      ],
      "name": "isApprovedForAll",
      "outputs": [
        {
          "internalType": "bool",
          "name": "",
          "type": "bool"
        }
      ],
      "stateMutability": "view",
      "type": "function"
    },
    {
      "inputs": [
        {
          "internalType": "address",
          "name": "to",
          "type": "address"
        },
        {
          "internalType": "string",
          "name": "tokenURI",
          "type": "string"
        }
      ],
      "name": "mint",
      "outputs": [],
      "stateMutability": "nonpayable",
      "type": "function"
    },
    {
      "inputs": [],
      "name": "name",
      "outputs": [
        {
          "internalType": "string",
          "name": "",
          "type": "string"
        }
      ],
      "stateMutability": "view",
      "type": "function"
    },
    {
      "inputs": [],
      "name": "nextTokenId",
      "outputs": [
        {
          "internalType": "uint256",
          "name": "",
          "type": "uint256"
        }
      ],
      "stateMutability": "view",
      "type": "function"
    },
    {
      "inputs": [],
      "name": "owner",
      "outputs": [
        {
          "internalType": "address",
          "name": "",
          "type": "address"
        }
      ],
      "stateMutability": "view",
      "type": "function"
    },
    {
      "inputs": [
        {
          "internalType": "uint256",
          "name": "tokenId",
          "type": "uint256"
        }
      ],
      "name": "ownerOf",
      "outputs": [
        {
          "internalType": "address",
          "name": "",
          "type": "address"
        }
      ],
      "stateMutability": "view",
      "type": "function"
    },
    {
      "inputs": [],
      "name": "renounceOwnership",
      "outputs": [],
      "stateMutability": "nonpayable",
      "type": "function"
    },
    {
      "inputs": [
        {
          "internalType": "address",
          "name": "user",
          "type": "address"
        }
      ],
      "name": "rewardUser",
      "outputs": [],
      "stateMutability": "nonpayable",
      "type": "function"
    },
    {
      "inputs": [
        {
          "internalType": "address",
          "name": "",
          "type": "address"
        }
      ],
      "name": "rewards",
      "outputs": [
        {
          "internalType": "uint256",
          "name": "",
          "type": "uint256"
        }
      ],
      "stateMutability": "view",
      "type": "function"
    },
    {
      "inputs": [
        {
          "internalType": "address",
          "name": "from",
          "type": "address"
        },
        {
          "internalType": "address",
          "name": "to",
          "type": "address"
        },
        {
          "internalType": "uint256",
          "name": "tokenId",
          "type": "uint256"
        }
      ],
      "name": "safeTransferFrom",
      "outputs": [],
      "stateMutability": "nonpayable",
      "type": "function"
    },
    {
      "inputs": [
        {
          "internalType": "address",
          "name": "from",
          "type": "address"
        },
        {
          "internalType": "address",
          "name": "to",
          "type": "address"
        },
        {
          "internalType": "uint256",
          "name": "tokenId",
          "type": "uint256"
        },
        {
          "internalType": "bytes",
          "name": "data",
          "type": "bytes"
        }
      ],
      "name": "safeTransferFrom",
      "outputs": [],
      "stateMutability": "nonpayable",
      "type": "function"
    },
    {
      "inputs": [
        {
          "internalType": "address",
          "name": "operator",
          "type": "address"
        },
        {
          "internalType": "bool",
          "name": "approved",
          "type": "bool"
        }
      ],
      "name": "setApprovalForAll",
      "outputs": [],
      "stateMutability": "nonpayable",
      "type": "function"
    },
    {
      "inputs": [
        {
          "internalType": "bytes4",
          "name": "interfaceId",
          "type": "bytes4"
        }
      ],
      "name": "supportsInterface",
      "outputs": [
        {
          "internalType": "bool",
          "name": "",
          "type": "bool"
        }
      ],
      "stateMutability": "view",
      "type": "function"
    },
    {
      "inputs": [],
      "name": "symbol",
      "outputs": [
        {
          "internalType": "string",
          "name": "",
          "type": "string"
        }
      ],
      "stateMutability": "view",
      "type": "function"
    },
    {
      "inputs": [
        {
          "internalType": "uint256",
          "name": "tokenId",
          "type": "uint256"
        }
      ],
      "name": "tokenURI",
      "outputs": [
        {
          "internalType": "string",
          "name": "",
          "type": "string"
        }
      ],
      "stateMutability": "view",
      "type": "function"
    },
    {
      "inputs": [
        {
          "internalType": "address",
          "name": "from",
          "type": "address"
        },
        {
          "internalType": "address",
          "name": "to",
          "type": "address"
        },
        {
          "internalType": "uint256",
          "name": "tokenId",
          "type": "uint256"
        }
      ],
      "name": "transferFrom",
      "outputs": [],
      "stateMutability": "nonpayable",
      "type": "function"
    },
    {
      "inputs": [
        {
          "internalType": "address",
          "name": "newOwner",
          "type": "address"
        }
      ],
      "name": "transferOwnership",
      "outputs": [],
      "stateMutability": "nonpayable",
      "type": "function"
    }
  ],
  "bytecode": "0x60806040523480156200001157600080fd5b506040516200356b3803806200356b833981810160405281019062000037919062000288565b806040518060400160405280600981526020017f5265776172644e465400000000000000000000000000000000000000000000008152506040518060400160405280600481526020017f524e4654000000000000000000000000000000000000000000000000000000008152508160009081620000b5919062000534565b508060019081620000c7919062000534565b505050600073ffffffffffffffffffffffffffffffffffffffff168173ffffffffffffffffffffffffffffffffffffffff16036200013f5760006040517f1e4fbdf70000000000000000000000000000000000000000000000000000000081526004016200013691906200062c565b60405180910390fd5b62000150816200015860201b60201c565b505062000649565b6000600760009054906101000a900473ffffffffffffffffffffffffffffffffffffffff16905081600760006101000a81548173ffffffffffffffffffffffffffffffffffffffff021916908373ffffffffffffffffffffffffffffffffffffffff1602179055508173ffffffffffffffffffffffffffffffffffffffff168173ffffffffffffffffffffffffffffffffffffffff167f8be0079c531659141344cd1fd0a4f28419497f9722a3daafe3b4186f6b6457e060405160405180910390a35050565b600080fd5b600073ffffffffffffffffffffffffffffffffffffffff82169050919050565b6000620002508262000223565b9050919050565b620002628162000243565b81146200026e57600080fd5b50565b600081519050620002828162000257565b92915050565b600060208284031215620002a157620002a06200021e565b5b6000620002b18482850162000271565b91505092915050565b600081519050919050565b7f4e487b7100000000000000000000000000000000000000000000000000000000600052604160045260246000fd5b7f4e487b7100000000000000000000000000000000000000000000000000000000600052602260045260246000fd5b600060028204905060018216806200033c57607f821691505b602082108103620003525762000351620002f4565b5b50919050565b60008190508160005260206000209050919050565b60006020601f8301049050919050565b600082821b905092915050565b600060088302620003bc7fffffffffffffffffffffffffffffffffffffffffffffffffffffffffffffffff826200037d565b620003c886836200037d565b95508019841693508086168417925050509392505050565b6000819050919050565b6000819050919050565b6000620004156200040f6200040984620003e0565b620003ea565b620003e0565b9050919050565b6000819050919050565b6200043183620003f4565b6200044962000440826200041c565b8484546200038a565b825550505050565b600090565b6200046062000451565b6200046d81848462000426565b505050565b5b8181101562000495576200048960008262000456565b60018101905062000473565b5050565b601f821115620004e457620004ae8162000358565b620004b9846200036d565b81016020851015620004c9578190505b620004e1620004d8856200036d565b83018262000472565b50505b505050565b600082821c905092915050565b60006200050960001984600802620004e9565b1980831691505092915050565b6000620005248383620004f6565b9150826002028217905092915050565b6200053f82620002ba565b67ffffffffffffffff8111156200055b576200055a620002c5565b5b62000567825462000323565b6200057482828562000499565b600060209050601f831160018114620005ac576000841562000597578287015190505b620005a3858262000516565b86555062000613565b601f198416620005bc8662000358565b60005b82811015620005e657848901518255600182019150602085019450602081019050620005bf565b8683101562000606578489015162000602601f891682620004f6565b8355505b6001600288020188555050505b505050505050565b620006268162000243565b82525050565b60006020820190506200064360008301846200061b565b92915050565b612f1280620006596000396000f3fe608060405234801561001057600080fd5b50600436106101585760003560e01c806375794a3c116100c3578063bb8c97971161007c578063bb8c9797146103c5578063c87b56dd146103e1578063d0def52114610411578063e985e9c51461042d578063f2fde38b1461045d578063fc73c86e1461047957610158565b806375794a3c146103175780638da5cb5b1461033557806395d89b4114610353578063a22cb46514610371578063a6afd7db1461038d578063b88d4fde146103a957610158565b80633e6d9770116101155780633e6d97701461024357806342842e0e146102755780634bb430b9146102915780636352211e146102ad57806370a08231146102dd578063715018a61461030d57610158565b806301ffc9a71461015d57806306fdde031461018d5780630700037d146101ab578063081812fc146101db578063095ea7b31461020b57806323b872dd14610227575b600080fd5b61017760048036038101906101729190612052565b6104a9565b604051610184919061209a565b60405180910390f35b61019561050a565b6040516101a29190612145565b60405180910390f35b6101c560048036038101906101c091906121c5565b61059c565b6040516101d2919061220b565b60405180910390f35b6101f560048036038101906101f09190612252565b6105b4565b604051610202919061228e565b60405180910390f35b610225600480360381019061022091906122a9565b6105d0565b005b610241600480360381019061023c91906122e9565b6105e6565b005b61025d600480360381019061025891906122a9565b6106e8565b60405161026c9392919061233c565b60405180910390f35b61028f600480360381019061028a91906122e9565b6107b7565b005b6102ab60048036038101906102a691906124af565b6107d7565b005b6102c760048036038101906102c29190612252565b61088b565b6040516102d4919061228e565b60405180910390f35b6102f760048036038101906102f291906121c5565b61089d565b604051610304919061220b565b60405180910390f35b610315610957565b005b61031f61096b565b60405161032c919061220b565b60405180910390f35b61033d610971565b60405161034a919061228e565b60405180910390f35b61035b61099b565b6040516103689190612145565b60405180910390f35b61038b6004803603810190610386919061254a565b610a2d565b005b6103a760048036038101906103a291906121c5565b610a43565b005b6103c360048036038101906103be919061262b565b610aa3565b005b6103df60048036038101906103da91906126ae565b610ac0565b005b6103fb60048036038101906103f69190612252565b610bca565b6040516104089190612145565b60405180910390f35b61042b600480360381019061042691906126f7565b610cdd565b005b61044760048036038101906104429190612753565b610d19565b604051610454919061209a565b60405180910390f35b610477600480360381019061047291906121c5565b610dad565b005b610493600480360381019061048e91906121c5565b610e33565b6040516104a091906128fe565b60405180910390f35b6000634906490660e01b7bffffffffffffffffffffffffffffffffffffffffffffffffffffffff1916827bffffffffffffffffffffffffffffffffffffffffffffffffffffffff19161480610503575061050282610f77565b5b9050919050565b6060600080546105199061294f565b80601f01602080910402602001604051908101604052809291908181526020018280546105459061294f565b80156105925780601f1061056757610100808354040283529160200191610592565b820191906000526020600020905b81548152906001019060200180831161057557829003601f168201915b5050505050905090565b60096020528060005260406000206000915090505481565b60006105bf82611059565b506105c9826110e1565b9050919050565b6105e282826105dd61111e565b611126565b5050565b600073ffffffffffffffffffffffffffffffffffffffff168273ffffffffffffffffffffffffffffffffffffffff16036106585760006040517f64a0ae9200000000000000000000000000000000000000000000000000000000815260040161064f919061228e565b60405180910390fd5b600061066c838361066761111e565b611138565b90508373ffffffffffffffffffffffffffffffffffffffff168173ffffffffffffffffffffffffffffffffffffffff16146106e2578382826040517f64283d7b0000000000000000000000000000000000000000000000000000000081526004016106d993929190612980565b60405180910390fd5b50505050565b600a602052816000526040600020818154811061070457600080fd5b9060005260206000209060030201600091509150508060000180546107289061294f565b80601f01602080910402602001604051908101604052809291908181526020018280546107549061294f565b80156107a15780601f10610776576101008083540402835291602001916107a1565b820191906000526020600020905b81548152906001019060200180831161078457829003601f168201915b5050505050908060010154908060020154905083565b6107d283838360405180602001604052806000815250610aa3565b505050565b600a60003373ffffffffffffffffffffffffffffffffffffffff1673ffffffffffffffffffffffffffffffffffffffff1681526020019081526020016000206040518060600160405280858152602001848152602001838152509080600181540180825580915050600190039060005260206000209060030201600090919091909150600082015181600001908161086f9190612b63565b5060208201518160010155604082015181600201555050505050565b600061089682611059565b9050919050565b60008073ffffffffffffffffffffffffffffffffffffffff168273ffffffffffffffffffffffffffffffffffffffff16036109105760006040517f89c62b64000000000000000000000000000000000000000000000000000000008152600401610907919061228e565b60405180910390fd5b600360008373ffffffffffffffffffffffffffffffffffffffff1673ffffffffffffffffffffffffffffffffffffffff168152602001908152602001600020549050919050565b61095f611352565b61096960006113d9565b565b60085481565b6000600760009054906101000a900473ffffffffffffffffffffffffffffffffffffffff16905090565b6060600180546109aa9061294f565b80601f01602080910402602001604051908101604052809291908181526020018280546109d69061294f565b8015610a235780601f106109f857610100808354040283529160200191610a23565b820191906000526020600020905b815481529060010190602001808311610a0657829003601f168201915b5050505050905090565b610a3f610a3861111e565b838361149f565b5050565b610a4b611352565b600960008273ffffffffffffffffffffffffffffffffffffffff1673ffffffffffffffffffffffffffffffffffffffff1681526020019081526020016000206000815480929190610a9b90612c64565b919050555050565b610aae8484846105e6565b610aba8484848461160e565b50505050565b6000600960003373ffffffffffffffffffffffffffffffffffffffff1673ffffffffffffffffffffffffffffffffffffffff1681526020019081526020016000205411610b42576040517f08c379a0000000000000000000000000000000000000000000000000000000008152600401610b3990612cf8565b60405180910390fd5b600960003373ffffffffffffffffffffffffffffffffffffffff1673ffffffffffffffffffffffffffffffffffffffff1681526020019081526020016000206000815480929190610b9290612d18565b9190505550610ba3336008546117c5565b610baf600854826117e3565b60086000815480929190610bc290612c64565b919050555050565b6060610bd582611059565b506000600660008481526020019081526020016000208054610bf69061294f565b80601f0160208091040260200160405190810160405280929190818152602001828054610c229061294f565b8015610c6f5780601f10610c4457610100808354040283529160200191610c6f565b820191906000526020600020905b815481529060010190602001808311610c5257829003601f168201915b505050505090506000610c8061183f565b90506000815103610c95578192505050610cd8565b600082511115610cca578082604051602001610cb2929190612d7d565b60405160208183030381529060405292505050610cd8565b610cd384611856565b925050505b919050565b610ce5611352565b610cf1826008546117c5565b610cfd600854826117e3565b60086000815480929190610d1090612c64565b91905055505050565b6000600560008473ffffffffffffffffffffffffffffffffffffffff1673ffffffffffffffffffffffffffffffffffffffff16815260200190815260200160002060008373ffffffffffffffffffffffffffffffffffffffff1673ffffffffffffffffffffffffffffffffffffffff16815260200190815260200160002060009054906101000a900460ff16905092915050565b610db5611352565b600073ffffffffffffffffffffffffffffffffffffffff168173ffffffffffffffffffffffffffffffffffffffff1603610e275760006040517f1e4fbdf7000000000000000000000000000000000000000000000000000000008152600401610e1e919061228e565b60405180910390fd5b610e30816113d9565b50565b6060600a60008373ffffffffffffffffffffffffffffffffffffffff1673ffffffffffffffffffffffffffffffffffffffff168152602001908152602001600020805480602002602001604051908101604052809291908181526020016000905b82821015610f6c5783829060005260206000209060030201604051806060016040529081600082018054610ec79061294f565b80601f0160208091040260200160405190810160405280929190818152602001828054610ef39061294f565b8015610f405780601f10610f1557610100808354040283529160200191610f40565b820191906000526020600020905b815481529060010190602001808311610f2357829003601f168201915b505050505081526020016001820154815260200160028201548152505081526020019060010190610e94565b505050509050919050565b60007f80ac58cd000000000000000000000000000000000000000000000000000000007bffffffffffffffffffffffffffffffffffffffffffffffffffffffff1916827bffffffffffffffffffffffffffffffffffffffffffffffffffffffff1916148061104257507f5b5e139f000000000000000000000000000000000000000000000000000000007bffffffffffffffffffffffffffffffffffffffffffffffffffffffff1916827bffffffffffffffffffffffffffffffffffffffffffffffffffffffff1916145b806110525750611051826118bf565b5b9050919050565b60008061106583611929565b9050600073ffffffffffffffffffffffffffffffffffffffff168173ffffffffffffffffffffffffffffffffffffffff16036110d857826040517f7e2732890000000000000000000000000000000000000000000000000000000081526004016110cf919061220b565b60405180910390fd5b80915050919050565b60006004600083815260200190815260200160002060009054906101000a900473ffffffffffffffffffffffffffffffffffffffff169050919050565b600033905090565b6111338383836001611966565b505050565b60008061114484611929565b9050600073ffffffffffffffffffffffffffffffffffffffff168373ffffffffffffffffffffffffffffffffffffffff161461118657611185818486611b2b565b5b600073ffffffffffffffffffffffffffffffffffffffff168173ffffffffffffffffffffffffffffffffffffffff1614611217576111c8600085600080611966565b6001600360008373ffffffffffffffffffffffffffffffffffffffff1673ffffffffffffffffffffffffffffffffffffffff168152602001908152602001600020600082825403925050819055505b600073ffffffffffffffffffffffffffffffffffffffff168573ffffffffffffffffffffffffffffffffffffffff161461129a576001600360008773ffffffffffffffffffffffffffffffffffffffff1673ffffffffffffffffffffffffffffffffffffffff168152602001908152602001600020600082825401925050819055505b846002600086815260200190815260200160002060006101000a81548173ffffffffffffffffffffffffffffffffffffffff021916908373ffffffffffffffffffffffffffffffffffffffff160217905550838573ffffffffffffffffffffffffffffffffffffffff168273ffffffffffffffffffffffffffffffffffffffff167fddf252ad1be2c89b69c2b068fc378daa952ba7f163c4a11628f55a4df523b3ef60405160405180910390a4809150509392505050565b61135a61111e565b73ffffffffffffffffffffffffffffffffffffffff16611378610971565b73ffffffffffffffffffffffffffffffffffffffff16146113d75761139b61111e565b6040517f118cdaa70000000000000000000000000000000000000000000000000000000081526004016113ce919061228e565b60405180910390fd5b565b6000600760009054906101000a900473ffffffffffffffffffffffffffffffffffffffff16905081600760006101000a81548173ffffffffffffffffffffffffffffffffffffffff021916908373ffffffffffffffffffffffffffffffffffffffff1602179055508173ffffffffffffffffffffffffffffffffffffffff168173ffffffffffffffffffffffffffffffffffffffff167f8be0079c531659141344cd1fd0a4f28419497f9722a3daafe3b4186f6b6457e060405160405180910390a35050565b600073ffffffffffffffffffffffffffffffffffffffff168273ffffffffffffffffffffffffffffffffffffffff160361151057816040517f5b08ba18000000000000000000000000000000000000000000000000000000008152600401611507919061228e565b60405180910390fd5b80600560008573ffffffffffffffffffffffffffffffffffffffff1673ffffffffffffffffffffffffffffffffffffffff16815260200190815260200160002060008473ffffffffffffffffffffffffffffffffffffffff1673ffffffffffffffffffffffffffffffffffffffff16815260200190815260200160002060006101000a81548160ff0219169083151502179055508173ffffffffffffffffffffffffffffffffffffffff168373ffffffffffffffffffffffffffffffffffffffff167f17307eab39ab6107e8899845ad3d59bd9653f200f220920489ca2b5937696c3183604051611601919061209a565b60405180910390a3505050565b60008373ffffffffffffffffffffffffffffffffffffffff163b11156117bf578273ffffffffffffffffffffffffffffffffffffffff1663150b7a0261165261111e565b8685856040518563ffffffff1660e01b81526004016116749493929190612df6565b6020604051808303816000875af19250505080156116b057506040513d601f19601f820116820180604052508101906116ad9190612e57565b60015b611734573d80600081146116e0576040519150601f19603f3d011682016040523d82523d6000602084013e6116e5565b606091505b50600081510361172c57836040517f64a0ae92000000000000000000000000000000000000000000000000000000008152600401611723919061228e565b60405180910390fd5b805181602001fd5b63150b7a0260e01b7bffffffffffffffffffffffffffffffffffffffffffffffffffffffff1916817bffffffffffffffffffffffffffffffffffffffffffffffffffffffff1916146117bd57836040517f64a0ae920000000000000000000000000000000000000000000000000000000081526004016117b4919061228e565b60405180910390fd5b505b50505050565b6117df828260405180602001604052806000815250611bef565b5050565b806006600084815260200190815260200160002090816118039190612b63565b507ff8e1a15aba9398e019f0b49df1a4fde98ee17ae345cb5f6b5e2c27f5033e8ce782604051611833919061220b565b60405180910390a15050565b606060405180602001604052806000815250905090565b606061186182611059565b50600061186c61183f565b9050600081511161188c57604051806020016040528060008152506118b7565b8061189684611c0b565b6040516020016118a7929190612d7d565b6040516020818303038152906040525b915050919050565b60007f01ffc9a7000000000000000000000000000000000000000000000000000000007bffffffffffffffffffffffffffffffffffffffffffffffffffffffff1916827bffffffffffffffffffffffffffffffffffffffffffffffffffffffff1916149050919050565b60006002600083815260200190815260200160002060009054906101000a900473ffffffffffffffffffffffffffffffffffffffff169050919050565b808061199f5750600073ffffffffffffffffffffffffffffffffffffffff168273ffffffffffffffffffffffffffffffffffffffff1614155b15611ad35760006119af84611059565b9050600073ffffffffffffffffffffffffffffffffffffffff168373ffffffffffffffffffffffffffffffffffffffff1614158015611a1a57508273ffffffffffffffffffffffffffffffffffffffff168173ffffffffffffffffffffffffffffffffffffffff1614155b8015611a2d5750611a2b8184610d19565b155b15611a6f57826040517fa9fbf51f000000000000000000000000000000000000000000000000000000008152600401611a66919061228e565b60405180910390fd5b8115611ad157838573ffffffffffffffffffffffffffffffffffffffff168273ffffffffffffffffffffffffffffffffffffffff167f8c5be1e5ebec7d5bd14f71427d1e84f3dd0314c0f7b2291e5b200ac8c7c3b92560405160405180910390a45b505b836004600085815260200190815260200160002060006101000a81548173ffffffffffffffffffffffffffffffffffffffff021916908373ffffffffffffffffffffffffffffffffffffffff16021790555050505050565b611b36838383611cd9565b611bea57600073ffffffffffffffffffffffffffffffffffffffff168373ffffffffffffffffffffffffffffffffffffffff1603611bab57806040517f7e273289000000000000000000000000000000000000000000000000000000008152600401611ba2919061220b565b60405180910390fd5b81816040517f177e802f000000000000000000000000000000000000000000000000000000008152600401611be1929190612e84565b60405180910390fd5b505050565b611bf98383611d9a565b611c06600084848461160e565b505050565b606060006001611c1a84611e93565b01905060008167ffffffffffffffff811115611c3957611c38612384565b5b6040519080825280601f01601f191660200182016040528015611c6b5781602001600182028036833780820191505090505b509050600082602001820190505b600115611cce578080600190039150507f3031323334353637383961626364656600000000000000000000000000000000600a86061a8153600a8581611cc257611cc1612ead565b5b04945060008503611c79575b819350505050919050565b60008073ffffffffffffffffffffffffffffffffffffffff168373ffffffffffffffffffffffffffffffffffffffff1614158015611d9157508273ffffffffffffffffffffffffffffffffffffffff168473ffffffffffffffffffffffffffffffffffffffff161480611d525750611d518484610d19565b5b80611d9057508273ffffffffffffffffffffffffffffffffffffffff16611d78836110e1565b73ffffffffffffffffffffffffffffffffffffffff16145b5b90509392505050565b600073ffffffffffffffffffffffffffffffffffffffff168273ffffffffffffffffffffffffffffffffffffffff1603611e0c5760006040517f64a0ae92000000000000000000000000000000000000000000000000000000008152600401611e03919061228e565b60405180910390fd5b6000611e1a83836000611138565b9050600073ffffffffffffffffffffffffffffffffffffffff168173ffffffffffffffffffffffffffffffffffffffff1614611e8e5760006040517f73c6ac6e000000000000000000000000000000000000000000000000000000008152600401611e85919061228e565b60405180910390fd5b505050565b600080600090507a184f03e93ff9f4daa797ed6e38ed64bf6a1f0100000000000000008310611ef1577a184f03e93ff9f4daa797ed6e38ed64bf6a1f0100000000000000008381611ee757611ee6612ead565b5b0492506040810190505b6d04ee2d6d415b85acef81000000008310611f2e576d04ee2d6d415b85acef81000000008381611f2457611f23612ead565b5b0492506020810190505b662386f26fc100008310611f5d57662386f26fc100008381611f5357611f52612ead565b5b0492506010810190505b6305f5e1008310611f86576305f5e1008381611f7c57611f7b612ead565b5b0492506008810190505b6127108310611fab576127108381611fa157611fa0612ead565b5b0492506004810190505b60648310611fce5760648381611fc457611fc3612ead565b5b0492506002810190505b600a8310611fdd576001810190505b80915050919050565b6000604051905090565b600080fd5b600080fd5b60007fffffffff0000000000000000000000000000000000000000000000000000000082169050919050565b61202f81611ffa565b811461203a57600080fd5b50565b60008135905061204c81612026565b92915050565b60006020828403121561206857612067611ff0565b5b60006120768482850161203d565b91505092915050565b60008115159050919050565b6120948161207f565b82525050565b60006020820190506120af600083018461208b565b92915050565b600081519050919050565b600082825260208201905092915050565b60005b838110156120ef5780820151818401526020810190506120d4565b60008484015250505050565b6000601f19601f8301169050919050565b6000612117826120b5565b61212181856120c0565b93506121318185602086016120d1565b61213a816120fb565b840191505092915050565b6000602082019050818103600083015261215f818461210c565b905092915050565b600073ffffffffffffffffffffffffffffffffffffffff82169050919050565b600061219282612167565b9050919050565b6121a281612187565b81146121ad57600080fd5b50565b6000813590506121bf81612199565b92915050565b6000602082840312156121db576121da611ff0565b5b60006121e9848285016121b0565b91505092915050565b6000819050919050565b612205816121f2565b82525050565b600060208201905061222060008301846121fc565b92915050565b61222f816121f2565b811461223a57600080fd5b50565b60008135905061224c81612226565b92915050565b60006020828403121561226857612267611ff0565b5b60006122768482850161223d565b91505092915050565b61228881612187565b82525050565b60006020820190506122a3600083018461227f565b92915050565b600080604083850312156122c0576122bf611ff0565b5b60006122ce858286016121b0565b92505060206122df8582860161223d565b9150509250929050565b60008060006060848603121561230257612301611ff0565b5b6000612310868287016121b0565b9350506020612321868287016121b0565b92505060406123328682870161223d565b9150509250925092565b60006060820190508181036000830152612356818661210c565b905061236560208301856121fc565b61237260408301846121fc565b949350505050565b600080fd5b600080fd5b7f4e487b7100000000000000000000000000000000000000000000000000000000600052604160045260246000fd5b6123bc826120fb565b810181811067ffffffffffffffff821117156123db576123da612384565b5b80604052505050565b60006123ee611fe6565b90506123fa82826123b3565b919050565b600067ffffffffffffffff82111561241a57612419612384565b5b612423826120fb565b9050602081019050919050565b82818337600083830152505050565b600061245261244d846123ff565b6123e4565b90508281526020810184848401111561246e5761246d61237f565b5b612479848285612430565b509392505050565b600082601f8301126124965761249561237a565b5b81356124a684826020860161243f565b91505092915050565b6000806000606084860312156124c8576124c7611ff0565b5b600084013567ffffffffffffffff8111156124e6576124e5611ff5565b5b6124f286828701612481565b93505060206125038682870161223d565b92505060406125148682870161223d565b9150509250925092565b6125278161207f565b811461253257600080fd5b50565b6000813590506125448161251e565b92915050565b6000806040838503121561256157612560611ff0565b5b600061256f858286016121b0565b925050602061258085828601612535565b9150509250929050565b600067ffffffffffffffff8211156125a5576125a4612384565b5b6125ae826120fb565b9050602081019050919050565b60006125ce6125c98461258a565b6123e4565b9050828152602081018484840111156125ea576125e961237f565b5b6125f5848285612430565b509392505050565b600082601f8301126126125761261161237a565b5b81356126228482602086016125bb565b91505092915050565b6000806000806080858703121561264557612644611ff0565b5b6000612653878288016121b0565b9450506020612664878288016121b0565b93505060406126758782880161223d565b925050606085013567ffffffffffffffff81111561269657612695611ff5565b5b6126a2878288016125fd565b91505092959194509250565b6000602082840312156126c4576126c3611ff0565b5b600082013567ffffffffffffffff8111156126e2576126e1611ff5565b5b6126ee84828501612481565b91505092915050565b6000806040838503121561270e5761270d611ff0565b5b600061271c858286016121b0565b925050602083013567ffffffffffffffff81111561273d5761273c611ff5565b5b61274985828601612481565b9150509250929050565b6000806040838503121561276a57612769611ff0565b5b6000612778858286016121b0565b9250506020612789858286016121b0565b9150509250929050565b600081519050919050565b600082825260208201905092915050565b6000819050602082019050919050565b600082825260208201905092915050565b60006127db826120b5565b6127e581856127bf565b93506127f58185602086016120d1565b6127fe816120fb565b840191505092915050565b612812816121f2565b82525050565b6000606083016000830151848203600086015261283582826127d0565b915050602083015161284a6020860182612809565b50604083015161285d6040860182612809565b508091505092915050565b60006128748383612818565b905092915050565b6000602082019050919050565b600061289482612793565b61289e818561279e565b9350836020820285016128b0856127af565b8060005b858110156128ec57848403895281516128cd8582612868565b94506128d88361287c565b925060208a019950506001810190506128b4565b50829750879550505050505092915050565b600060208201905081810360008301526129188184612889565b905092915050565b7f4e487b7100000000000000000000000000000000000000000000000000000000600052602260045260246000fd5b6000600282049050600182168061296757607f821691505b60208210810361297a57612979612920565b5b50919050565b6000606082019050612995600083018661227f565b6129a260208301856121fc565b6129af604083018461227f565b949350505050565b60008190508160005260206000209050919050565b60006020601f8301049050919050565b600082821b905092915050565b600060088302612a197fffffffffffffffffffffffffffffffffffffffffffffffffffffffffffffffff826129dc565b612a2386836129dc565b95508019841693508086168417925050509392505050565b6000819050919050565b6000612a60612a5b612a56846121f2565b612a3b565b6121f2565b9050919050565b6000819050919050565b612a7a83612a45565b612a8e612a8682612a67565b8484546129e9565b825550505050565b600090565b612aa3612a96565b612aae818484612a71565b505050565b5b81811015612ad257612ac7600082612a9b565b600181019050612ab4565b5050565b601f821115612b1757612ae8816129b7565b612af1846129cc565b81016020851015612b00578190505b612b14612b0c856129cc565b830182612ab3565b50505b505050565b600082821c905092915050565b6000612b3a60001984600802612b1c565b1980831691505092915050565b6000612b538383612b29565b9150826002028217905092915050565b612b6c826120b5565b67ffffffffffffffff811115612b8557612b84612384565b5b612b8f825461294f565b612b9a828285612ad6565b600060209050601f831160018114612bcd5760008415612bbb578287015190505b612bc58582612b47565b865550612c2d565b601f198416612bdb866129b7565b60005b82811015612c0357848901518255600182019150602085019450602081019050612bde565b86831015612c205784890151612c1c601f891682612b29565b8355505b6001600288020188555050505b505050505050565b7f4e487b7100000000000000000000000000000000000000000000000000000000600052601160045260246000fd5b6000612c6f826121f2565b91507fffffffffffffffffffffffffffffffffffffffffffffffffffffffffffffffff8203612ca157612ca0612c35565b5b600182019050919050565b7f4e6f207265776172647320617661696c61626c65000000000000000000000000600082015250565b6000612ce26014836120c0565b9150612ced82612cac565b602082019050919050565b60006020820190508181036000830152612d1181612cd5565b9050919050565b6000612d23826121f2565b915060008203612d3657612d35612c35565b5b600182039050919050565b600081905092915050565b6000612d57826120b5565b612d618185612d41565b9350612d718185602086016120d1565b80840191505092915050565b6000612d898285612d4c565b9150612d958284612d4c565b91508190509392505050565b600081519050919050565b600082825260208201905092915050565b6000612dc882612da1565b612dd28185612dac565b9350612de28185602086016120d1565b612deb816120fb565b840191505092915050565b6000608082019050612e0b600083018761227f565b612e18602083018661227f565b612e2560408301856121fc565b8181036060830152612e378184612dbd565b905095945050505050565b600081519050612e5181612026565b92915050565b600060208284031215612e6d57612e6c611ff0565b5b6000612e7b84828501612e42565b91505092915050565b6000604082019050612e99600083018561227f565b612ea660208301846121fc565b9392505050565b7f4e487b7100000000000000000000000000000000000000000000000000000000600052601260045260246000fdfea2646970667358221220bea025a029111bd1c3f4f9a6daeffc5a58672dfa73ba05eebe4e698da674c63264736f6c63430008140033",
  "linkReferences": {},
  "deployedLinkReferences": {}
}